{
  "contractName": "Splitter",
  "abi": [
    {
      "constant": true,
      "inputs": [
        {
          "name": "",
          "type": "address"
        }
      ],
      "name": "payeesRecord",
      "outputs": [
        {
          "name": "",
          "type": "uint256"
        }
      ],
      "payable": false,
      "stateMutability": "view",
      "type": "function"
    },
    {
      "inputs": [],
      "payable": false,
      "stateMutability": "nonpayable",
      "type": "constructor"
    },
    {
      "anonymous": false,
      "inputs": [
        {
          "indexed": false,
          "name": "from",
          "type": "address"
        },
        {
          "indexed": false,
          "name": "value",
          "type": "uint256"
        },
        {
          "indexed": false,
          "name": "payeeOne",
          "type": "address"
        },
        {
          "indexed": false,
          "name": "payeeTwo",
          "type": "address"
        }
      ],
      "name": "LogSplitEther",
      "type": "event"
    },
    {
      "constant": false,
      "inputs": [
        {
          "name": "firstPayee",
          "type": "address"
        },
        {
          "name": "secondPayee",
          "type": "address"
        }
      ],
      "name": "splitAmount",
      "outputs": [],
      "payable": true,
      "stateMutability": "payable",
      "type": "function"
    },
    {
      "constant": false,
      "inputs": [],
      "name": "withdraw",
      "outputs": [],
      "payable": false,
      "stateMutability": "nonpayable",
      "type": "function"
    },
    {
      "constant": false,
      "inputs": [],
      "name": "kill",
      "outputs": [],
      "payable": false,
      "stateMutability": "nonpayable",
      "type": "function"
    }
  ],
  "bytecode": "0x6060604052341561000f57600080fd5b336000806101000a81548173ffffffffffffffffffffffffffffffffffffffff021916908373ffffffffffffffffffffffffffffffffffffffff16021790555061077e8061005e6000396000f300606060405260043610610062576000357c0100000000000000000000000000000000000000000000000000000000900463ffffffff168063019263a9146100675780633ccfd60b146100b457806341c0e1b5146100c9578063d6687f7b146100de575b600080fd5b341561007257600080fd5b61009e600480803573ffffffffffffffffffffffffffffffffffffffff1690602001909190505061012b565b6040518082815260200191505060405180910390f35b34156100bf57600080fd5b6100c7610143565b005b34156100d457600080fd5b6100dc610257565b005b610129600480803573ffffffffffffffffffffffffffffffffffffffff1690602001909190803573ffffffffffffffffffffffffffffffffffffffff169060200190919050506102f4565b005b60016020528060005260406000206000915090505481565b6000600160003373ffffffffffffffffffffffffffffffffffffffff1673ffffffffffffffffffffffffffffffffffffffff1681526020019081526020016000205411151561019157600080fd5b3373ffffffffffffffffffffffffffffffffffffffff166108fc600160003373ffffffffffffffffffffffffffffffffffffffff1673ffffffffffffffffffffffffffffffffffffffff168152602001908152602001600020549081150290604051600060405180830381858888f19350505050151561021057600080fd5b6000600160003373ffffffffffffffffffffffffffffffffffffffff1673ffffffffffffffffffffffffffffffffffffffff16815260200190815260200160002081905550565b6000809054906101000a900473ffffffffffffffffffffffffffffffffffffffff1673ffffffffffffffffffffffffffffffffffffffff163373ffffffffffffffffffffffffffffffffffffffff161415156102b257600080fd5b6102ba61055c565b6000809054906101000a900473ffffffffffffffffffffffffffffffffffffffff1673ffffffffffffffffffffffffffffffffffffffff16ff5b6000803411151561030457600080fd5b60023481151561031057fe5b049050348160020214151561032457600080fd5b600280548060010182816103389190610701565b9160005260206000209001600085909190916101000a81548173ffffffffffffffffffffffffffffffffffffffff021916908373ffffffffffffffffffffffffffffffffffffffff160217905550506002805480600101828161039b9190610701565b9160005260206000209001600084909190916101000a81548173ffffffffffffffffffffffffffffffffffffffff021916908373ffffffffffffffffffffffffffffffffffffffff1602179055505080600160008573ffffffffffffffffffffffffffffffffffffffff1673ffffffffffffffffffffffffffffffffffffffff1681526020019081526020016000206000828254019250508190555080600160008473ffffffffffffffffffffffffffffffffffffffff1673ffffffffffffffffffffffffffffffffffffffff168152602001908152602001600020600082825401925050819055507f494b3fca1a4084c41c9f453231f88290a95842b39f10f1c2d572de3d5c73bc7533348585604051808573ffffffffffffffffffffffffffffffffffffffff1673ffffffffffffffffffffffffffffffffffffffff1681526020018481526020018373ffffffffffffffffffffffffffffffffffffffff1673ffffffffffffffffffffffffffffffffffffffff1681526020018273ffffffffffffffffffffffffffffffffffffffff1673ffffffffffffffffffffffffffffffffffffffff16815260200194505050505060405180910390a1505050565b6000806002805490509150600090505b81811115156106fd5760006001600060028481548110151561058a57fe5b906000526020600020900160009054906101000a900473ffffffffffffffffffffffffffffffffffffffff1673ffffffffffffffffffffffffffffffffffffffff1673ffffffffffffffffffffffffffffffffffffffff168152602001908152602001600020541115156105fd57600080fd5b60028181548110151561060c57fe5b906000526020600020900160009054906101000a900473ffffffffffffffffffffffffffffffffffffffff1673ffffffffffffffffffffffffffffffffffffffff166108fc6001600060028581548110151561066457fe5b906000526020600020900160009054906101000a900473ffffffffffffffffffffffffffffffffffffffff1673ffffffffffffffffffffffffffffffffffffffff1673ffffffffffffffffffffffffffffffffffffffff168152602001908152602001600020549081150290604051600060405180830381858888f1935050505015156106f057600080fd5b808060010191505061056c565b5050565b81548183558181151161072857818360005260206000209182019101610727919061072d565b5b505050565b61074f91905b8082111561074b576000816000905550600101610733565b5090565b905600a165627a7a7230582021b0214014463ba5b211d43847605e7c3d9d9ffde3d59c7cbe03f04bbdbb2a4e0029",
  "source": "pragma solidity ^0.4.17;\n\ncontract Splitter {\n  \n address owner; \n mapping(address => uint) public payeesRecord;\n address[] payees;\n \n  function Splitter() public {\n      owner = msg.sender;\n  }\n\n  modifier onlyOwner () {\n        require(msg.sender == owner);\n        _;\n    }\n\n  event LogSplitEther(address from, uint value, address payeeOne, address payeeTwo);\n  \n\n  function splitAmount (address firstPayee, address secondPayee)  public  payable{\n      require(msg.value>0);\n        \n       uint dividedValue = msg.value/2;\n\n        //Checking for even amount. If not return.\n        require(2*dividedValue == msg.value);\n\n        payees.push(firstPayee);\n        payees.push(secondPayee);\n        payeesRecord[firstPayee] += dividedValue;\n        payeesRecord[secondPayee] += dividedValue;\n\n        LogSplitEther(msg.sender, msg.value, firstPayee, secondPayee);\n          \n  }\n//Withraw Pull pattern\n  function withdraw() public {\n      //Check if the amount is present and greater than zero.\n    require(payeesRecord[msg.sender]>0);\n    //Send the amount\n    msg.sender.transfer(payeesRecord[msg.sender]);\n    //Once sent successfully deduct the amount.\n    payeesRecord[msg.sender] = 0;\n\n  }\n\n  function kill() public onlyOwner() {\n       //return all funds and then destruct\n    sendFunds();\n    selfdestruct(owner);       \n}\n\nfunction sendFunds() private {\n\n    uint length = payees.length;\n\n   for (uint i = 0; i<=length; i++) {\n       require(payeesRecord[payees[i]]>0);\n      payees[i].transfer(payeesRecord[payees[i]]);\n   }\n}\n\n}",
  "sourcePath": "/home/rviparla/DAPPS/gitRepoTruffle/firstTruffleProject/contracts/Splitter.sol",
  "compiler": {
    "name": "solc",
    "version": "0.4.19+commit.c4cbbb05.Emscripten.clang"
  },
  "schemaVersion": "2.0.0",
  "updatedAt": "2018-03-10T02:47:37.176Z"
}