{
  "contractName": "Splitter",
  "abi": [
    {
      "constant": true,
      "inputs": [],
      "name": "carol",
      "outputs": [
        {
          "name": "",
          "type": "address"
        }
      ],
      "payable": false,
      "stateMutability": "view",
      "type": "function"
    },
    {
      "constant": true,
      "inputs": [],
      "name": "bob",
      "outputs": [
        {
          "name": "",
          "type": "address"
        }
      ],
      "payable": false,
      "stateMutability": "view",
      "type": "function"
    },
    {
      "constant": true,
      "inputs": [],
      "name": "alice",
      "outputs": [
        {
          "name": "",
          "type": "address"
        }
      ],
      "payable": false,
      "stateMutability": "view",
      "type": "function"
    },
    {
      "inputs": [],
      "payable": false,
      "stateMutability": "nonpayable",
      "type": "constructor"
    },
    {
      "constant": false,
      "inputs": [
        {
          "name": "currentBob",
          "type": "address"
        }
      ],
      "name": "createBob",
      "outputs": [],
      "payable": false,
      "stateMutability": "nonpayable",
      "type": "function"
    },
    {
      "constant": false,
      "inputs": [
        {
          "name": "currentCarol",
          "type": "address"
        }
      ],
      "name": "createCarol",
      "outputs": [],
      "payable": false,
      "stateMutability": "nonpayable",
      "type": "function"
    },
    {
      "constant": false,
      "inputs": [],
      "name": "contributeAndSplit",
      "outputs": [
        {
          "name": "sucess",
          "type": "bool"
        }
      ],
      "payable": true,
      "stateMutability": "payable",
      "type": "function"
    },
    {
      "constant": false,
      "inputs": [],
      "name": "kill",
      "outputs": [],
      "payable": false,
      "stateMutability": "nonpayable",
      "type": "function"
    }
  ],
  "bytecode": "0x6060604052341561000f57600080fd5b336000806101000a81548173ffffffffffffffffffffffffffffffffffffffff021916908373ffffffffffffffffffffffffffffffffffffffff1602179055506105168061005e6000396000f300606060405260043610610083576000357c0100000000000000000000000000000000000000000000000000000000900463ffffffff16806341c0e1b5146100885780638b930f151461009d578063c09cec77146100f2578063e2e6caa114610147578063e9f4136f14610180578063fb47e3a2146101a2578063fc234eb6146101f7575b600080fd5b341561009357600080fd5b61009b610230565b005b34156100a857600080fd5b6100b06102c5565b604051808273ffffffffffffffffffffffffffffffffffffffff1673ffffffffffffffffffffffffffffffffffffffff16815260200191505060405180910390f35b34156100fd57600080fd5b6101056102eb565b604051808273ffffffffffffffffffffffffffffffffffffffff1673ffffffffffffffffffffffffffffffffffffffff16815260200191505060405180910390f35b341561015257600080fd5b61017e600480803573ffffffffffffffffffffffffffffffffffffffff16906020019091905050610311565b005b610188610355565b604051808215151515815260200191505060405180910390f35b34156101ad57600080fd5b6101b5610481565b604051808273ffffffffffffffffffffffffffffffffffffffff1673ffffffffffffffffffffffffffffffffffffffff16815260200191505060405180910390f35b341561020257600080fd5b61022e600480803573ffffffffffffffffffffffffffffffffffffffff169060200190919050506104a6565b005b6000809054906101000a900473ffffffffffffffffffffffffffffffffffffffff1673ffffffffffffffffffffffffffffffffffffffff163373ffffffffffffffffffffffffffffffffffffffff1614151561028b57600080fd5b6000809054906101000a900473ffffffffffffffffffffffffffffffffffffffff1673ffffffffffffffffffffffffffffffffffffffff16ff5b600260009054906101000a900473ffffffffffffffffffffffffffffffffffffffff1681565b600160009054906101000a900473ffffffffffffffffffffffffffffffffffffffff1681565b80600160006101000a81548173ffffffffffffffffffffffffffffffffffffffff021916908373ffffffffffffffffffffffffffffffffffffffff16021790555050565b6000346000809054906101000a900473ffffffffffffffffffffffffffffffffffffffff1673ffffffffffffffffffffffffffffffffffffffff16311015151561039e57600080fd5b600160009054906101000a900473ffffffffffffffffffffffffffffffffffffffff1673ffffffffffffffffffffffffffffffffffffffff166108fc6002348115156103e657fe5b049081150290604051600060405180830381858888f19350505050151561040c57600080fd5b600260009054906101000a900473ffffffffffffffffffffffffffffffffffffffff1673ffffffffffffffffffffffffffffffffffffffff166108fc60023481151561045457fe5b049081150290604051600060405180830381858888f19350505050151561047a57600080fd5b6001905090565b6000809054906101000a900473ffffffffffffffffffffffffffffffffffffffff1681565b80600260006101000a81548173ffffffffffffffffffffffffffffffffffffffff021916908373ffffffffffffffffffffffffffffffffffffffff160217905550505600a165627a7a72305820c65bb091b358877eddfd6f6289f8bf90b985acb60b048b7759bc24dceb5d32ac0029",
  "source": "pragma solidity ^0.4.17;\n\ncontract Splitter {\n  \n  address  public alice;\n  address  public bob;\n  address  public carol;\n\n  function Splitter() public {\n      alice = msg.sender;\n  }\n  \n  function createBob(address currentBob) public {\n         bob = currentBob;\n  }\n\n  function createCarol(address currentCarol) public {\n         carol = currentCarol;\n  }\n\n  function contributeAndSplit() payable public returns(bool sucess) {\n      require(alice.balance>=msg.value);\n          \n         bob.transfer((msg.value)/2);\n         carol.transfer((msg.value)/2);\n          \n      return true;\n  }\n\n  function kill() public { \n   require(msg.sender == alice);\n    selfdestruct(alice);       \n}\n\n}",
  "sourcePath": "/home/rviparla/DAPPS/Project1/contracts/Splitter.sol",
  "compiler": {
    "name": "solc",
    "version": "0.4.19+commit.c4cbbb05.Emscripten.clang"
  },
  "schemaVersion": "2.0.0",
  "updatedAt": "2018-03-09T01:23:11.406Z"
}