{
  "contractName": "Splitter",
  "abi": [
    {
      "constant": true,
      "inputs": [],
      "name": "payeeTwo",
      "outputs": [
        {
          "name": "",
          "type": "address"
        }
      ],
      "payable": false,
      "stateMutability": "view",
      "type": "function"
    },
    {
      "constant": true,
      "inputs": [],
      "name": "owner",
      "outputs": [
        {
          "name": "",
          "type": "address"
        }
      ],
      "payable": false,
      "stateMutability": "view",
      "type": "function"
    },
    {
      "constant": true,
      "inputs": [],
      "name": "payeeOne",
      "outputs": [
        {
          "name": "",
          "type": "address"
        }
      ],
      "payable": false,
      "stateMutability": "view",
      "type": "function"
    },
    {
      "inputs": [],
      "payable": false,
      "stateMutability": "nonpayable",
      "type": "constructor"
    },
    {
      "anonymous": false,
      "inputs": [
        {
          "indexed": false,
          "name": "from",
          "type": "address"
        },
        {
          "indexed": false,
          "name": "value",
          "type": "uint256"
        },
        {
          "indexed": false,
          "name": "payeeOne",
          "type": "address"
        },
        {
          "indexed": false,
          "name": "payeeTwo",
          "type": "address"
        }
      ],
      "name": "LogSplitEther",
      "type": "event"
    },
    {
      "constant": false,
      "inputs": [
        {
          "name": "currentPayee",
          "type": "address"
        }
      ],
      "name": "createPayeeOne",
      "outputs": [],
      "payable": false,
      "stateMutability": "nonpayable",
      "type": "function"
    },
    {
      "constant": false,
      "inputs": [
        {
          "name": "currentPayee",
          "type": "address"
        }
      ],
      "name": "createPayeeTwo",
      "outputs": [],
      "payable": false,
      "stateMutability": "nonpayable",
      "type": "function"
    },
    {
      "constant": true,
      "inputs": [],
      "name": "showPayeeOneBalance",
      "outputs": [
        {
          "name": "amount",
          "type": "uint256"
        }
      ],
      "payable": false,
      "stateMutability": "view",
      "type": "function"
    },
    {
      "constant": true,
      "inputs": [],
      "name": "showPayeeTwoBalance",
      "outputs": [
        {
          "name": "amount",
          "type": "uint256"
        }
      ],
      "payable": false,
      "stateMutability": "view",
      "type": "function"
    },
    {
      "constant": true,
      "inputs": [],
      "name": "showCallerBalance",
      "outputs": [
        {
          "name": "amount",
          "type": "uint256"
        }
      ],
      "payable": false,
      "stateMutability": "view",
      "type": "function"
    },
    {
      "constant": false,
      "inputs": [],
      "name": "contributeAndSplit",
      "outputs": [
        {
          "name": "sucess",
          "type": "bool"
        }
      ],
      "payable": true,
      "stateMutability": "payable",
      "type": "function"
    },
    {
      "constant": false,
      "inputs": [],
      "name": "kill",
      "outputs": [],
      "payable": false,
      "stateMutability": "nonpayable",
      "type": "function"
    }
  ],
  "bytecode": "0x6060604052341561000f57600080fd5b336000806101000a81548173ffffffffffffffffffffffffffffffffffffffff021916908373ffffffffffffffffffffffffffffffffffffffff1602179055506107318061005e6000396000f3006060604052600436106100a4576000357c0100000000000000000000000000000000000000000000000000000000900463ffffffff16806341c0e1b5146100a9578063422701e8146100be5780634c4208b3146101135780638da5cb5b1461014c578063b3bf19e3146101a1578063bcd31569146101f6578063cf6d7cb31461022f578063dd76075e14610258578063e9f4136f14610281578063ee44e5f6146102a3575b600080fd5b34156100b457600080fd5b6100bc6102cc565b005b34156100c957600080fd5b6100d1610361565b604051808273ffffffffffffffffffffffffffffffffffffffff1673ffffffffffffffffffffffffffffffffffffffff16815260200191505060405180910390f35b341561011e57600080fd5b61014a600480803573ffffffffffffffffffffffffffffffffffffffff16906020019091905050610387565b005b341561015757600080fd5b61015f6103cb565b604051808273ffffffffffffffffffffffffffffffffffffffff1673ffffffffffffffffffffffffffffffffffffffff16815260200191505060405180910390f35b34156101ac57600080fd5b6101b46103f0565b604051808273ffffffffffffffffffffffffffffffffffffffff1673ffffffffffffffffffffffffffffffffffffffff16815260200191505060405180910390f35b341561020157600080fd5b61022d600480803573ffffffffffffffffffffffffffffffffffffffff16906020019091905050610416565b005b341561023a57600080fd5b61024261045a565b6040518082815260200191505060405180910390f35b341561026357600080fd5b61026b61049b565b6040518082815260200191505060405180910390f35b6102896104ba565b604051808215151515815260200191505060405180910390f35b34156102ae57600080fd5b6102b66106c4565b6040518082815260200191505060405180910390f35b6000809054906101000a900473ffffffffffffffffffffffffffffffffffffffff1673ffffffffffffffffffffffffffffffffffffffff163373ffffffffffffffffffffffffffffffffffffffff1614151561032757600080fd5b6000809054906101000a900473ffffffffffffffffffffffffffffffffffffffff1673ffffffffffffffffffffffffffffffffffffffff16ff5b600260009054906101000a900473ffffffffffffffffffffffffffffffffffffffff1681565b80600160006101000a81548173ffffffffffffffffffffffffffffffffffffffff021916908373ffffffffffffffffffffffffffffffffffffffff16021790555050565b6000809054906101000a900473ffffffffffffffffffffffffffffffffffffffff1681565b600160009054906101000a900473ffffffffffffffffffffffffffffffffffffffff1681565b80600260006101000a81548173ffffffffffffffffffffffffffffffffffffffff021916908373ffffffffffffffffffffffffffffffffffffffff16021790555050565b6000600260009054906101000a900473ffffffffffffffffffffffffffffffffffffffff1673ffffffffffffffffffffffffffffffffffffffff1631905090565b60003373ffffffffffffffffffffffffffffffffffffffff1631905090565b600080341115156104ca57600080fd5b600160009054906101000a900473ffffffffffffffffffffffffffffffffffffffff1673ffffffffffffffffffffffffffffffffffffffff166108fc60023481151561051257fe5b049081150290604051600060405180830381858888f19350505050151561053857600080fd5b600260009054906101000a900473ffffffffffffffffffffffffffffffffffffffff1673ffffffffffffffffffffffffffffffffffffffff166108fc60023481151561058057fe5b049081150290604051600060405180830381858888f1935050505015156105a657600080fd5b7f494b3fca1a4084c41c9f453231f88290a95842b39f10f1c2d572de3d5c73bc753334600160009054906101000a900473ffffffffffffffffffffffffffffffffffffffff16600260009054906101000a900473ffffffffffffffffffffffffffffffffffffffff16604051808573ffffffffffffffffffffffffffffffffffffffff1673ffffffffffffffffffffffffffffffffffffffff1681526020018481526020018373ffffffffffffffffffffffffffffffffffffffff1673ffffffffffffffffffffffffffffffffffffffff1681526020018273ffffffffffffffffffffffffffffffffffffffff1673ffffffffffffffffffffffffffffffffffffffff16815260200194505050505060405180910390a16001905090565b6000600160009054906101000a900473ffffffffffffffffffffffffffffffffffffffff1673ffffffffffffffffffffffffffffffffffffffff16319050905600a165627a7a7230582022d907040ad79a8f57b20823b97f02cdb80306f1577f4210e61305c02c248e4d0029",
  "source": "pragma solidity ^0.4.17;\n\ncontract Splitter {\n  \n  address  public owner;\n  address  public payeeOne;\n  address  public payeeTwo;\n\n\n  function Splitter() public {\n      owner = msg.sender;\n  }\n\n  event LogSplitEther(address from, uint value, address payeeOne, address payeeTwo);\n  \n  function createPayeeOne(address currentPayee) public {\n         payeeOne = currentPayee;\n  }\n\n  function createPayeeTwo(address currentPayee) public {\n         payeeTwo = currentPayee;\n  }\n\n  function showPayeeOneBalance() public view returns(uint amount) {\n       return payeeOne.balance;\n\n  }\n\n  function showPayeeTwoBalance() public view returns(uint amount) {\n       return payeeTwo.balance;\n\n  }\n\n\n  function showCallerBalance() public view returns(uint amount) {\n       return msg.sender.balance;\n  }\n\n  function contributeAndSplit() payable public returns(bool sucess) {\n      require(msg.value>0);\n          \n\n         payeeOne.transfer((msg.value)/2);\n         payeeTwo.transfer((msg.value)/2);\n         LogSplitEther(msg.sender, msg.value, payeeOne, payeeTwo);\n          \n      return true;\n  }\n\n  function kill() public { \n   require(msg.sender == owner);\n    selfdestruct(owner);       \n}\n\n}",
  "sourcePath": "/home/rviparla/DAPPS/gitRepoTruffle/firstTruffleProject/contracts/Splitter.sol",
  "compiler": {
    "name": "solc",
    "version": "0.4.19+commit.c4cbbb05.Emscripten.clang"
  },
  "schemaVersion": "2.0.0",
  "updatedAt": "2018-03-09T04:44:57.295Z"
}