{
  "contractName": "Splitter",
  "abi": [
    {
      "constant": true,
      "inputs": [],
      "name": "payeeTwo",
      "outputs": [
        {
          "name": "",
          "type": "address"
        }
      ],
      "payable": false,
      "stateMutability": "view",
      "type": "function"
    },
    {
      "constant": true,
      "inputs": [],
      "name": "owner",
      "outputs": [
        {
          "name": "",
          "type": "address"
        }
      ],
      "payable": false,
      "stateMutability": "view",
      "type": "function"
    },
    {
      "constant": true,
      "inputs": [],
      "name": "payeeOne",
      "outputs": [
        {
          "name": "",
          "type": "address"
        }
      ],
      "payable": false,
      "stateMutability": "view",
      "type": "function"
    },
    {
      "constant": true,
      "inputs": [
        {
          "name": "",
          "type": "address"
        }
      ],
      "name": "payeeBalances",
      "outputs": [
        {
          "name": "",
          "type": "uint256"
        }
      ],
      "payable": false,
      "stateMutability": "view",
      "type": "function"
    },
    {
      "inputs": [],
      "payable": false,
      "stateMutability": "nonpayable",
      "type": "constructor"
    },
    {
      "anonymous": false,
      "inputs": [
        {
          "indexed": false,
          "name": "from",
          "type": "address"
        },
        {
          "indexed": false,
          "name": "value",
          "type": "uint256"
        },
        {
          "indexed": false,
          "name": "payeeOne",
          "type": "address"
        },
        {
          "indexed": false,
          "name": "payeeTwo",
          "type": "address"
        }
      ],
      "name": "LogSplitEther",
      "type": "event"
    },
    {
      "constant": false,
      "inputs": [
        {
          "name": "currentPayee",
          "type": "address"
        }
      ],
      "name": "createPayeeOne",
      "outputs": [],
      "payable": false,
      "stateMutability": "nonpayable",
      "type": "function"
    },
    {
      "constant": false,
      "inputs": [
        {
          "name": "currentPayee",
          "type": "address"
        }
      ],
      "name": "createPayeeTwo",
      "outputs": [],
      "payable": false,
      "stateMutability": "nonpayable",
      "type": "function"
    },
    {
      "constant": true,
      "inputs": [],
      "name": "showPayeeOneBalance",
      "outputs": [
        {
          "name": "amount",
          "type": "uint256"
        }
      ],
      "payable": false,
      "stateMutability": "view",
      "type": "function"
    },
    {
      "constant": true,
      "inputs": [],
      "name": "showPayeeTwoBalance",
      "outputs": [
        {
          "name": "amount",
          "type": "uint256"
        }
      ],
      "payable": false,
      "stateMutability": "view",
      "type": "function"
    },
    {
      "constant": true,
      "inputs": [],
      "name": "showCallerBalance",
      "outputs": [
        {
          "name": "amount",
          "type": "uint256"
        }
      ],
      "payable": false,
      "stateMutability": "view",
      "type": "function"
    },
    {
      "constant": false,
      "inputs": [],
      "name": "contributeAndSplit",
      "outputs": [
        {
          "name": "sucess",
          "type": "bool"
        }
      ],
      "payable": true,
      "stateMutability": "payable",
      "type": "function"
    },
    {
      "constant": false,
      "inputs": [],
      "name": "kill",
      "outputs": [],
      "payable": false,
      "stateMutability": "nonpayable",
      "type": "function"
    }
  ],
  "bytecode": "0x6060604052341561000f57600080fd5b336000806101000a81548173ffffffffffffffffffffffffffffffffffffffff021916908373ffffffffffffffffffffffffffffffffffffffff1602179055506109478061005e6000396000f3006060604052600436106100af576000357c0100000000000000000000000000000000000000000000000000000000900463ffffffff16806341c0e1b5146100b4578063422701e8146100c95780634c4208b31461011e5780638da5cb5b14610157578063b3bf19e3146101ac578063bcd3156914610201578063cf6d7cb31461023a578063da53f2db14610263578063dd76075e146102b0578063e9f4136f146102d9578063ee44e5f6146102fb575b600080fd5b34156100bf57600080fd5b6100c7610324565b005b34156100d457600080fd5b6100dc6103b9565b604051808273ffffffffffffffffffffffffffffffffffffffff1673ffffffffffffffffffffffffffffffffffffffff16815260200191505060405180910390f35b341561012957600080fd5b610155600480803573ffffffffffffffffffffffffffffffffffffffff169060200190919050506103df565b005b341561016257600080fd5b61016a61048a565b604051808273ffffffffffffffffffffffffffffffffffffffff1673ffffffffffffffffffffffffffffffffffffffff16815260200191505060405180910390f35b34156101b757600080fd5b6101bf6104af565b604051808273ffffffffffffffffffffffffffffffffffffffff1673ffffffffffffffffffffffffffffffffffffffff16815260200191505060405180910390f35b341561020c57600080fd5b610238600480803573ffffffffffffffffffffffffffffffffffffffff169060200190919050506104d5565b005b341561024557600080fd5b61024d610580565b6040518082815260200191505060405180910390f35b341561026e57600080fd5b61029a600480803573ffffffffffffffffffffffffffffffffffffffff169060200190919050506105c1565b6040518082815260200191505060405180910390f35b34156102bb57600080fd5b6102c36105d9565b6040518082815260200191505060405180910390f35b6102e16105f8565b604051808215151515815260200191505060405180910390f35b341561030657600080fd5b61030e6108da565b6040518082815260200191505060405180910390f35b6000809054906101000a900473ffffffffffffffffffffffffffffffffffffffff1673ffffffffffffffffffffffffffffffffffffffff163373ffffffffffffffffffffffffffffffffffffffff1614151561037f57600080fd5b6000809054906101000a900473ffffffffffffffffffffffffffffffffffffffff1673ffffffffffffffffffffffffffffffffffffffff16ff5b600260009054906101000a900473ffffffffffffffffffffffffffffffffffffffff1681565b80600160006101000a81548173ffffffffffffffffffffffffffffffffffffffff021916908373ffffffffffffffffffffffffffffffffffffffff160217905550600060036000600160009054906101000a900473ffffffffffffffffffffffffffffffffffffffff1673ffffffffffffffffffffffffffffffffffffffff1673ffffffffffffffffffffffffffffffffffffffff1681526020019081526020016000208190555050565b6000809054906101000a900473ffffffffffffffffffffffffffffffffffffffff1681565b600160009054906101000a900473ffffffffffffffffffffffffffffffffffffffff1681565b80600260006101000a81548173ffffffffffffffffffffffffffffffffffffffff021916908373ffffffffffffffffffffffffffffffffffffffff160217905550600060036000600260009054906101000a900473ffffffffffffffffffffffffffffffffffffffff1673ffffffffffffffffffffffffffffffffffffffff1673ffffffffffffffffffffffffffffffffffffffff1681526020019081526020016000208190555050565b6000600260009054906101000a900473ffffffffffffffffffffffffffffffffffffffff1673ffffffffffffffffffffffffffffffffffffffff1631905090565b60036020528060005260406000206000915090505481565b60003373ffffffffffffffffffffffffffffffffffffffff1631905090565b60008060003411151561060a57600080fd5b60023481151561061657fe5b0490508060036000600160009054906101000a900473ffffffffffffffffffffffffffffffffffffffff1673ffffffffffffffffffffffffffffffffffffffff1673ffffffffffffffffffffffffffffffffffffffff168152602001908152602001600020600082825401925050819055508060036000600260009054906101000a900473ffffffffffffffffffffffffffffffffffffffff1673ffffffffffffffffffffffffffffffffffffffff1673ffffffffffffffffffffffffffffffffffffffff16815260200190815260200160002060008282540192505081905550600160009054906101000a900473ffffffffffffffffffffffffffffffffffffffff1673ffffffffffffffffffffffffffffffffffffffff166108fc829081150290604051600060405180830381858888f19350505050151561075957600080fd5b600260009054906101000a900473ffffffffffffffffffffffffffffffffffffffff1673ffffffffffffffffffffffffffffffffffffffff166108fc829081150290604051600060405180830381858888f1935050505015156107bb57600080fd5b7f494b3fca1a4084c41c9f453231f88290a95842b39f10f1c2d572de3d5c73bc753334600160009054906101000a900473ffffffffffffffffffffffffffffffffffffffff16600260009054906101000a900473ffffffffffffffffffffffffffffffffffffffff16604051808573ffffffffffffffffffffffffffffffffffffffff1673ffffffffffffffffffffffffffffffffffffffff1681526020018481526020018373ffffffffffffffffffffffffffffffffffffffff1673ffffffffffffffffffffffffffffffffffffffff1681526020018273ffffffffffffffffffffffffffffffffffffffff1673ffffffffffffffffffffffffffffffffffffffff16815260200194505050505060405180910390a1600191505090565b6000600160009054906101000a900473ffffffffffffffffffffffffffffffffffffffff1673ffffffffffffffffffffffffffffffffffffffff16319050905600a165627a7a7230582051827105bfd28d8eee64b585370b0ae1bdb2ce3f5efb67487e8ae7af45bb3fff0029",
  "source": "pragma solidity ^0.4.17;\n\ncontract Splitter {\n  \n  address  public owner;\n  address  public payeeOne;\n  address  public payeeTwo;\n  mapping (address => uint) public payeeBalances;\n\n\n  function Splitter() public {\n      owner = msg.sender;\n  }\n\n  event LogSplitEther(address from, uint value, address payeeOne, address payeeTwo);\n  \n  function createPayeeOne(address currentPayee) public {\n         payeeOne = currentPayee;\n         payeeBalances[payeeOne] = 0;\n  }\n\n  function createPayeeTwo(address currentPayee) public {\n         payeeTwo = currentPayee;\n         payeeBalances[payeeTwo] = 0;\n  }\n\n  function showPayeeOneBalance() public view returns(uint amount) {\n       return payeeOne.balance;\n\n  }\n\n  function showPayeeTwoBalance() public view returns(uint amount) {\n       return payeeTwo.balance;\n\n  }\n\n\n  function showCallerBalance() public view returns(uint amount) {\n       return msg.sender.balance;\n  }\n\n  function contributeAndSplit() payable public returns(bool sucess) {\n      require(msg.value>0);\n        \n        uint amount = ((msg.value)/2);\n\n          payeeBalances[payeeOne] += amount;\n          payeeBalances[payeeTwo] += amount;\n         payeeOne.transfer(amount);\n         payeeTwo.transfer(amount);\n         LogSplitEther(msg.sender, msg.value, payeeOne, payeeTwo);\n          \n      return true;\n  }\n\n  function kill() public { \n   require(msg.sender == owner);\n    selfdestruct(owner);       \n}\n\n}",
  "sourcePath": "/home/rviparla/DAPPS/gitRepoTruffle/firstTruffleProject/contracts/Splitter.sol",
  "compiler": {
    "name": "solc",
    "version": "0.4.19+commit.c4cbbb05.Emscripten.clang"
  },
  "schemaVersion": "2.0.0",
  "updatedAt": "2018-03-09T06:10:06.229Z"
}